{
  "contractName": "FundRaising",
  "abi": [
    {
      "inputs": [
        {
          "internalType": "uint256",
          "name": "_startTime",
          "type": "uint256"
        },
        {
          "internalType": "uint256",
          "name": "_endTime",
          "type": "uint256"
        },
        {
          "internalType": "uint256",
          "name": "_targetNum",
          "type": "uint256"
        },
        {
          "internalType": "address",
          "name": "_beneficiary",
          "type": "address"
        },
        {
          "internalType": "address",
          "name": "_token",
          "type": "address"
        }
      ],
      "stateMutability": "nonpayable",
      "type": "constructor"
    },
    {
      "inputs": [
        {
          "internalType": "uint256",
          "name": "",
          "type": "uint256"
        }
      ],
      "name": "amount",
      "outputs": [
        {
          "internalType": "uint256",
          "name": "",
          "type": "uint256"
        }
      ],
      "stateMutability": "view",
      "type": "function"
    },
    {
      "inputs": [],
      "name": "beneficiary",
      "outputs": [
        {
          "internalType": "address",
          "name": "",
          "type": "address"
        }
      ],
      "stateMutability": "view",
      "type": "function"
    },
    {
      "inputs": [],
      "name": "benefitAmount",
      "outputs": [
        {
          "internalType": "uint256",
          "name": "",
          "type": "uint256"
        }
      ],
      "stateMutability": "view",
      "type": "function"
    },
    {
      "inputs": [],
      "name": "deployer",
      "outputs": [
        {
          "internalType": "address",
          "name": "",
          "type": "address"
        }
      ],
      "stateMutability": "view",
      "type": "function"
    },
    {
      "inputs": [],
      "name": "fundRaisingCloses",
      "outputs": [
        {
          "internalType": "uint256",
          "name": "",
          "type": "uint256"
        }
      ],
      "stateMutability": "view",
      "type": "function"
    },
    {
      "inputs": [],
      "name": "fundRaisingOpens",
      "outputs": [
        {
          "internalType": "uint256",
          "name": "",
          "type": "uint256"
        }
      ],
      "stateMutability": "view",
      "type": "function"
    },
    {
      "inputs": [],
      "name": "participatedNum",
      "outputs": [
        {
          "internalType": "uint256",
          "name": "",
          "type": "uint256"
        }
      ],
      "stateMutability": "view",
      "type": "function"
    },
    {
      "inputs": [],
      "name": "refundAmount",
      "outputs": [
        {
          "internalType": "uint256",
          "name": "",
          "type": "uint256"
        }
      ],
      "stateMutability": "view",
      "type": "function"
    },
    {
      "inputs": [],
      "name": "targetNum",
      "outputs": [
        {
          "internalType": "uint256",
          "name": "",
          "type": "uint256"
        }
      ],
      "stateMutability": "view",
      "type": "function"
    },
    {
      "inputs": [],
      "name": "token",
      "outputs": [
        {
          "internalType": "address",
          "name": "",
          "type": "address"
        }
      ],
      "stateMutability": "view",
      "type": "function"
    },
    {
      "inputs": [],
      "name": "getBenefitAmount",
      "outputs": [
        {
          "internalType": "uint256",
          "name": "",
          "type": "uint256"
        }
      ],
      "stateMutability": "view",
      "type": "function"
    },
    {
      "inputs": [],
      "name": "getRefundAmount",
      "outputs": [
        {
          "internalType": "uint256",
          "name": "",
          "type": "uint256"
        }
      ],
      "stateMutability": "view",
      "type": "function"
    },
    {
      "inputs": [
        {
          "internalType": "uint256",
          "name": "_amount",
          "type": "uint256"
        }
      ],
      "name": "fundToken",
      "outputs": [],
      "stateMutability": "nonpayable",
      "type": "function"
    },
    {
      "inputs": [],
      "name": "currentCollection",
      "outputs": [
        {
          "internalType": "uint256",
          "name": "",
          "type": "uint256"
        }
      ],
      "stateMutability": "view",
      "type": "function"
    },
    {
      "inputs": [],
      "name": "withdrawToken",
      "outputs": [],
      "stateMutability": "nonpayable",
      "type": "function"
    }
  ],
  "bytecode": "0x60806040523480156200001157600080fd5b50604051620012c9380380620012c98339818101604052810190620000379190620001c7565b84600181905550836000819055508260038190555081600560006101000a81548173ffffffffffffffffffffffffffffffffffffffff021916908373ffffffffffffffffffffffffffffffffffffffff16021790555080600660006101000a81548173ffffffffffffffffffffffffffffffffffffffff021916908373ffffffffffffffffffffffffffffffffffffffff16021790555033600260006101000a81548173ffffffffffffffffffffffffffffffffffffffff021916908373ffffffffffffffffffffffffffffffffffffffff160217905550600060048190555050505050506200024f565b600080fd5b6000819050919050565b6200013c8162000127565b81146200014857600080fd5b50565b6000815190506200015c8162000131565b92915050565b600073ffffffffffffffffffffffffffffffffffffffff82169050919050565b60006200018f8262000162565b9050919050565b620001a18162000182565b8114620001ad57600080fd5b50565b600081519050620001c18162000196565b92915050565b600080600080600060a08688031215620001e657620001e562000122565b5b6000620001f6888289016200014b565b955050602062000209888289016200014b565b94505060406200021c888289016200014b565b93505060606200022f88828901620001b0565b92505060806200024288828901620001b0565b9150509295509295909350565b61106a806200025f6000396000f3fe608060405234801561001057600080fd5b50600436106100f55760003560e01c8063a46f20b211610097578063d350fe1f11610066578063d350fe1f14610240578063d5f394881461025e578063f7e826de1461027c578063fc0c546a1461029a576100f5565b8063a46f20b2146101dc578063ad33513f146101fa578063b0f7ea2114610218578063ca628c7814610236576100f5565b8063604a7c92116100d3578063604a7c921461015257806360555394146101705780638b0d02581461018e5780638f4458c3146101be576100f5565b80631797a002146100fa57806338af3eed14610118578063419cd5e614610136575b600080fd5b6101026102b8565b60405161010f9190610b6a565b60405180910390f35b6101206102c2565b60405161012d9190610bc6565b60405180910390f35b610150600480360381019061014b9190610c12565b6102e8565b005b61015a610446565b6040516101679190610b6a565b60405180910390f35b6101786104e9565b6040516101859190610b6a565b60405180910390f35b6101a860048036038101906101a39190610c12565b6104ef565b6040516101b59190610b6a565b60405180910390f35b6101c6610513565b6040516101d39190610b6a565b60405180910390f35b6101e4610519565b6040516101f19190610b6a565b60405180910390f35b61020261051f565b60405161020f9190610b6a565b60405180910390f35b610220610525565b60405161022d9190610b6a565b60405180910390f35b61023e61052b565b005b6102486109dc565b6040516102559190610b6a565b60405180910390f35b6102666109e6565b6040516102739190610bc6565b60405180910390f35b610284610a0c565b6040516102919190610b6a565b60405180910390f35b6102a2610a12565b6040516102af9190610bc6565b60405180910390f35b6000600a54905090565b600560009054906101000a900473ffffffffffffffffffffffffffffffffffffffff1681565b600154421180156102fa575060005442105b610339576040517f08c379a000000000000000000000000000000000000000000000000000000000815260040161033090610c9c565b60405180910390fd5b600660009054906101000a900473ffffffffffffffffffffffffffffffffffffffff1673ffffffffffffffffffffffffffffffffffffffff166323b872dd3330846040518463ffffffff1660e01b815260040161039893929190610cbc565b6020604051808303816000875af11580156103b7573d6000803e3d6000fd5b505050506040513d601f19601f820116820180604052508101906103db9190610d2b565b506103e533610a38565b6103ed610ae6565b80600760003373ffffffffffffffffffffffffffffffffffffffff1673ffffffffffffffffffffffffffffffffffffffff168152602001908152602001600020600082825461043c9190610d87565b9250508190555050565b6000600660009054906101000a900473ffffffffffffffffffffffffffffffffffffffff1673ffffffffffffffffffffffffffffffffffffffff166370a08231306040518263ffffffff1660e01b81526004016104a39190610bc6565b602060405180830381865afa1580156104c0573d6000803e3d6000fd5b505050506040513d601f19601f820116820180604052508101906104e49190610dd0565b905090565b60015481565b600981815481106104ff57600080fd5b906000526020600020016000915090505481565b60005481565b60035481565b600b5481565b60045481565b600560009054906101000a900473ffffffffffffffffffffffffffffffffffffffff1673ffffffffffffffffffffffffffffffffffffffff163373ffffffffffffffffffffffffffffffffffffffff16146105bb576040517f08c379a00000000000000000000000000000000000000000000000000000000081526004016105b290610e49565b60405180910390fd5b60005442116105ff576040517f08c379a00000000000000000000000000000000000000000000000000000000081526004016105f690610eb5565b60405180910390fd5b6000610609610446565b9050600354600454106106bc57600660009054906101000a900473ffffffffffffffffffffffffffffffffffffffff1673ffffffffffffffffffffffffffffffffffffffff1663a9059cbb33836040518363ffffffff1660e01b8152600401610673929190610ed5565b6020604051808303816000875af1158015610692573d6000803e3d6000fd5b505050506040513d601f19601f820116820180604052508101906106b69190610d2b565b506109d9565b600060076000600260009054906101000a900473ffffffffffffffffffffffffffffffffffffffff1673ffffffffffffffffffffffffffffffffffffffff1673ffffffffffffffffffffffffffffffffffffffff168152602001908152602001600020541115610936576003546004546003546107399190610efe565b60076000600260009054906101000a900473ffffffffffffffffffffffffffffffffffffffff1673ffffffffffffffffffffffffffffffffffffffff1673ffffffffffffffffffffffffffffffffffffffff168152602001908152602001600020546107a59190610f32565b6107af9190610fbb565b600b81905550600b54816107c39190610efe565b600a81905550600660009054906101000a900473ffffffffffffffffffffffffffffffffffffffff1673ffffffffffffffffffffffffffffffffffffffff1663a9059cbb33600a546040518363ffffffff1660e01b8152600401610828929190610ed5565b6020604051808303816000875af1158015610847573d6000803e3d6000fd5b505050506040513d601f19601f8201168201806040525081019061086b9190610d2b565b50600660009054906101000a900473ffffffffffffffffffffffffffffffffffffffff1673ffffffffffffffffffffffffffffffffffffffff1663a9059cbb600260009054906101000a900473ffffffffffffffffffffffffffffffffffffffff16600b546040518363ffffffff1660e01b81526004016108ed929190610ed5565b6020604051808303816000875af115801561090c573d6000803e3d6000fd5b505050506040513d601f19601f820116820180604052508101906109309190610d2b565b506109d8565b600660009054906101000a900473ffffffffffffffffffffffffffffffffffffffff1673ffffffffffffffffffffffffffffffffffffffff1663a9059cbb33836040518363ffffffff1660e01b8152600401610993929190610ed5565b6020604051808303816000875af11580156109b2573d6000803e3d6000fd5b505050506040513d601f19601f820116820180604052508101906109d69190610d2b565b505b5b50565b6000600b54905090565b600260009054906101000a900473ffffffffffffffffffffffffffffffffffffffff1681565b600a5481565b600660009054906101000a900473ffffffffffffffffffffffffffffffffffffffff1681565b6000600760008373ffffffffffffffffffffffffffffffffffffffff1673ffffffffffffffffffffffffffffffffffffffff1681526020019081526020016000205403610ae3576008819080600181540180825580915050600190039060005260206000200160009091909190916101000a81548173ffffffffffffffffffffffffffffffffffffffff021916908373ffffffffffffffffffffffffffffffffffffffff1602179055505b50565b60015442118015610af8575060005442105b610b37576040517f08c379a0000000000000000000000000000000000000000000000000000000008152600401610b2e90610c9c565b60405180910390fd5b60046000815480929190610b4a90610fec565b9190505550565b6000819050919050565b610b6481610b51565b82525050565b6000602082019050610b7f6000830184610b5b565b92915050565b600073ffffffffffffffffffffffffffffffffffffffff82169050919050565b6000610bb082610b85565b9050919050565b610bc081610ba5565b82525050565b6000602082019050610bdb6000830184610bb7565b92915050565b600080fd5b610bef81610b51565b8114610bfa57600080fd5b50565b600081359050610c0c81610be6565b92915050565b600060208284031215610c2857610c27610be1565b5b6000610c3684828501610bfd565b91505092915050565b600082825260208201905092915050565b7f6f6e6c792046756e6420696e2070726f67726573730000000000000000000000600082015250565b6000610c86601583610c3f565b9150610c9182610c50565b602082019050919050565b60006020820190508181036000830152610cb581610c79565b9050919050565b6000606082019050610cd16000830186610bb7565b610cde6020830185610bb7565b610ceb6040830184610b5b565b949350505050565b60008115159050919050565b610d0881610cf3565b8114610d1357600080fd5b50565b600081519050610d2581610cff565b92915050565b600060208284031215610d4157610d40610be1565b5b6000610d4f84828501610d16565b91505092915050565b7f4e487b7100000000000000000000000000000000000000000000000000000000600052601160045260246000fd5b6000610d9282610b51565b9150610d9d83610b51565b9250828201905080821115610db557610db4610d58565b5b92915050565b600081519050610dca81610be6565b92915050565b600060208284031215610de657610de5610be1565b5b6000610df484828501610dbb565b91505092915050565b7f6f6e6c792062656e65666963696172792063616c6c20746869732066756e6300600082015250565b6000610e33601f83610c3f565b9150610e3e82610dfd565b602082019050919050565b60006020820190508181036000830152610e6281610e26565b9050919050565b7f6f6e6c792061667465722046756e6420636c6f73657300000000000000000000600082015250565b6000610e9f601683610c3f565b9150610eaa82610e69565b602082019050919050565b60006020820190508181036000830152610ece81610e92565b9050919050565b6000604082019050610eea6000830185610bb7565b610ef76020830184610b5b565b9392505050565b6000610f0982610b51565b9150610f1483610b51565b9250828203905081811115610f2c57610f2b610d58565b5b92915050565b6000610f3d82610b51565b9150610f4883610b51565b9250817fffffffffffffffffffffffffffffffffffffffffffffffffffffffffffffffff0483118215151615610f8157610f80610d58565b5b828202905092915050565b7f4e487b7100000000000000000000000000000000000000000000000000000000600052601260045260246000fd5b6000610fc682610b51565b9150610fd183610b51565b925082610fe157610fe0610f8c565b5b828204905092915050565b6000610ff782610b51565b91507fffffffffffffffffffffffffffffffffffffffffffffffffffffffffffffffff820361102957611028610d58565b5b60018201905091905056fea26469706673582212209ac1f254f114606e9cf1bd870910fb1360b6dd955ffa66c04719e470c8d0f05d64736f6c63430008100033",
  "immutableReferences": {},
  "source": "// SPDX-License-Identifier: GPL-3.0\r\npragma solidity >=0.7.0 <0.9.0;\r\n\r\nimport \"./IERC20.sol\";\r\n\r\ncontract FundRaising {\r\n    uint256 public fundRaisingCloses; //      uint \r\n    uint256 public fundRaisingOpens; //      uint \r\n    address public deployer; //  \r\n    uint256 public targetNum; // \r\n    uint256 public participatedNum; //   \r\n    address public beneficiary; // address type :  account   , fund  \r\n    address public token; //  token  !!\r\n    mapping(address => uint256) funderToAmount;\r\n    address[] funders;\r\n    uint256[] public amount; //  \r\n    uint256 public benefitAmount; //   (to beneficiary)\r\n    uint256 public refundAmount; //   (to star)\r\n\r\n    /**\r\n     * _startTime\r\n     * _endTime :  \r\n     * _beneficiary,     ,  msg.sender     !\r\n     * _token :   ERC20 token .\r\n     * _allowAmount :  contract    MGK , MGK\r\n     */\r\n    constructor(\r\n        uint256 _startTime,\r\n        uint256 _endTime,\r\n        uint256 _targetNum,\r\n        address _beneficiary,\r\n        address _token\r\n    ) {\r\n        fundRaisingOpens = _startTime;\r\n        fundRaisingCloses = _endTime; // duration   \r\n        targetNum = _targetNum;\r\n        beneficiary = _beneficiary; // address   \r\n        token = _token; // token contract address\r\n        deployer = msg.sender;\r\n        participatedNum = 0;\r\n    }\r\n\r\n    /**\r\n     *   ,   .\r\n     */\r\n    function getBenefitAmount() public view returns (uint256) {\r\n        return benefitAmount;\r\n    }\r\n\r\n    /**\r\n     *   ,   \r\n     */\r\n    function getRefundAmount() public view returns (uint256) {\r\n        return refundAmount;\r\n    }\r\n\r\n    /**\r\n     *   ,     ,    \r\n     *    !\r\n     */\r\n    function participate() private onlyInProgress {\r\n        participatedNum++;\r\n    }\r\n\r\n    /**\r\n     * @dev Moves fundToken      .\r\n     * Emits a {Transfer} event. from erc20\r\n     * Requirements:\r\n     * - _amount        .\r\n     * - _amount     . \r\n     * -   1MGK   \r\n     * -  !\r\n     */\r\n    function fundToken(uint256 _amount) external onlyInProgress {\r\n        IERC20(token).transferFrom(msg.sender, address(this), _amount);\r\n        addFunder(msg.sender);\r\n        participate();\r\n        funderToAmount[msg.sender] += _amount;\r\n    }\r\n\r\n    /**\r\n     * contract       ,   \r\n     *         :  \r\n     */\r\n    function currentCollection() public view returns (uint256) {\r\n        return IERC20(token).balanceOf(address(this));\r\n    }\r\n\r\n    function addFunder(address _funder) internal {\r\n        if (funderToAmount[_funder] == 0) {\r\n            funders.push(_funder);\r\n        }\r\n    }\r\n\r\n    //  \r\n    modifier onlyBeneficiary() {\r\n        require(msg.sender == beneficiary, \"only beneficiary call this func\");\r\n        _;\r\n    }\r\n    /**\r\n     *     , modifier \r\n     */\r\n    modifier onlyInProgress() {\r\n        require(\r\n            (block.timestamp > fundRaisingOpens) &&\r\n                (block.timestamp < fundRaisingCloses),\r\n            \"only Fund in progress\"\r\n        );\r\n        _;\r\n    }\r\n    /**\r\n     *   \r\n     */\r\n    modifier onlyAfterFundCloses() {\r\n        require(block.timestamp > fundRaisingCloses, \"only after Fund closes\");\r\n        _;\r\n    }\r\n\r\n    /**\r\n     * token beneficiary   ( )\r\n     *  withdraw     \r\n     */\r\n    function withdrawToken() external onlyBeneficiary onlyAfterFundCloses {\r\n        uint256 numsOfToken = currentCollection();\r\n        if (participatedNum >= targetNum) {\r\n            IERC20(token).transfer(msg.sender, numsOfToken);\r\n        } else {\r\n            if (funderToAmount[deployer] > 0) {\r\n                refundAmount =\r\n                    (funderToAmount[deployer] * (targetNum - participatedNum)) /\r\n                    targetNum;\r\n                benefitAmount = numsOfToken - refundAmount;\r\n\r\n                IERC20(token).transfer(msg.sender, benefitAmount);\r\n                IERC20(token).transfer(deployer, refundAmount);\r\n            } else {\r\n                IERC20(token).transfer(msg.sender, numsOfToken);\r\n            }\r\n        }\r\n    } //  \r\n}\r\n",
  "sourcePath": "C:\\Users\\SSAFY\\Desktop\\Project\\S07P22A708\\backend\\src\\main\\solidity\\contracts\\FundRaising.sol",
  "compiler": {
    "name": "solc",
    "version": "0.8.16+commit.07a7930e.Emscripten.clang"
  },
  "schemaVersion": "3.4.9",
  "updatedAt": "2022-09-29T08:04:11.897Z",
  "devdoc": {
    "kind": "dev",
    "methods": {
      "fundToken(uint256)": {
        "details": "Moves fundToken      . Emits a {Transfer} event. from erc20 Requirements: - _amount        . - _amount     .  -   1MGK    -  !"
      }
    },
    "version": 1
  },
  "userdoc": {
    "kind": "user",
    "methods": {
      "constructor": {
        "notice": "_startTime _endTime :   _beneficiary,     ,  msg.sender     ! _token :   ERC20 token . _allowAmount :  contract    MGK , MGK"
      },
      "currentCollection()": {
        "notice": "contract       ,            :  "
      },
      "getBenefitAmount()": {
        "notice": "  ,   ."
      },
      "getRefundAmount()": {
        "notice": "  ,   "
      },
      "withdrawToken()": {
        "notice": "token beneficiary   ( )  withdraw     "
      }
    },
    "version": 1
  }
}